:020000040800F2
:100000000050002021020008290200082D020008EB
:100010003102000835020008390200080000000023
:100020000000000000000000000000003D02000889
:1000300041020008000000004502000849020008D3
:100040004D0200084D0200084D0200084D02000854
:100050004D0200084D0200084D0200084D02000844
:100060004D0200084D0200084D0200084D02000834
:100070004D0200084D0200084D0200084D02000824
:100080004D0200084D0200084D0200084D02000814
:100090004D0200084D0200084D0200084D02000804
:1000A0004D0200084D0200084D0200084D020008F4
:1000B0004D0200084D0200084D0200084D020008E4
:1000C0004D0200084D0200084D0200084D020008D4
:1000D0004D0200084D0200084D0200084D020008C4
:1000E0004D0200084D0200084D020008000000000B
:1000F0000000000000000000000000000000000000
:1001000000000000000000005FF808F100B583B0B7
:1001100000F0A8F8304B314A1360314A1360314B7C
:10012000314A03E011681960043304322F498B42CD
:10013000F8D32A4B1A682E4B9A4204D1284B1A68DE
:100140002C4B9A4200D0FEE7234B2B4A13602B4ADC
:1001500013602B4B02E000221A600433294A9342B9
:10016000F9D3254B1B6813B9244B1B6803B1FEE779
:1001700000F07CF801A8694600F06CF8224C234B93
:100180001C1BA410002504E01F4B53F82530984792
:100190000135AC42F8DC1E4C1E4B1C1BA410002584
:1001A00004E01B4B53F8253098470135AC42F8DC8E
:1001B0000198009900F05CF90546174C174B1C1B81
:1001C000A41004E0013C144B53F824309847002C51
:1001D000F8DC284600F03CF8BABADECA000000207D
:1001E0002000002000000020A804000824000020B7
:1001F0007856341232547698240000202C000020C7
:1002000024000020300000205002000850020008A6
:100210005002000850020008500200085002000876
:1002200008B5FFF773FF00BFFEE700BFFEE700BFA2
:10023000FEE700BFFEE700BFFEE700BFFEE700BF2E
:10024000FEE700BFFEE700BF704700BFFEE700BF4C
:10025000FEE700BF01230360014B0B60704700BF46
:100260000400002008B500F06BF808BD08B500F0E8
:100270008FF808BD82B00023019300932C4A1368C5
:1002800043F4803313602A4B1B6803F4003300935C
:10029000019B01330193009B1BB9019BB3F5A06F38
:1002A000F1D1234B1B6813F4003F02D001230093CC
:1002B00001E000230093009B012B36D11D4B1A68EF
:1002C00042F010021A601A6822F003021A601A68DB
:1002D00042F002021A60A3F580535A685A605A68C5
:1002E0005A605A6842F480625A605A6822F47C125A
:1002F0005A605A6842F4E8125A601A6842F08072F2
:100300001A600B4B1B6813F0007FFAD0084B5A6839
:1003100022F003025A605A6842F002025A60044B0B
:100320005B6803F00C03082BF9D102B0704700BFE3
:10033000001002400020024008B5FFF79BFF08BDF7
:1003400008B5104B1A6842F001021A6059680E4A4B
:100350000A405A601A6822F0847222F480321A60CD
:100360001A6822F480221A605A6822F4FE025A6047
:100370004FF41F029A60FFF7DFFF4FF00062034B5C
:100380009A6008BD001002400000FFF800ED00E098
:100390001F4B5B6803F00C03042B06D0082B08D01E
:1003A0003BBB1C4A1C4B1A6026E01A4A1A4B1A60C7
:1003B00022E0174A53685268C3F38343023312F4AE
:1003C000803F05D1154A02FB03F3134A136013E083
:1003D0000F4A526812F4003F05D0104A02FB03F3A3
:1003E0000D4A136008E00B4A02FB03F30A4A13604C
:1003F00002E0084A084B1A60054B5B68C3F303131D
:10040000074AD25CD2B204490B68D3400B607047F4
:100410000010024000127A001C00002000093D007C
:100420000C00002082B00190019B5A1E0192002B0B
:10043000FAD102B0704700BF82B00190019A012347
:100440009340034AD1680B43D36002B0704700BFAA
:100450000010014082B00190019A012393400349AA
:10046000CA6822EA0303CB6002B070470010014063
:1004700008B51022094B9A614FF40012A3F580339E
:100480005A600D20FFF7D8FF0548FFF7CBFF0D207E
:10049000FFF7E0FF0348FFF7C5FFF2E70010024057
:0804A000E093040000350C009C
:1004A80078563412280000200000000000000000E8
:1004B80000000000010203040607080900A24A041C
:0404C800325476989C
:040000050800010DE1
:00000001FF
